:100000000C948C000C94B4000C94B4000C94B400C8
:100010000C94B4000C94B4000C94B4000C94B40090
:100020000C94B4000C94B4000C94B4000C94B40080
:100030000C94B4000C94B4000C94B4000C94B40070
:100040000C9470080C94B4000C94B4000C94B4009C
:100050000C94B4000C94B4000C94B4000C94B40050
:100060000C94BA080C94B4003D3E003D3E002020A4
:1000700000202000202000202020436F7272657233
:100080002050726F67002020205465737400202078
:100090002053656C656320477261646F7300202094
:1000A00020436F6E6620477261646F730054656E03
:1000B00073696F6E200000000000240027002A00F2
:1000C00000000000250028002B0000000000230095
:1000D00026002900040404040404040402020202A9
:1000E00002020303030303030102040810204080FB
:1000F000010204081020010204081020000000087A
:1001000000020100000304070000000000000000DE
:10011000580058002000D90911241FBECFEFD8E0A5
:10012000DEBFCDBF11E0A0E0B1E0ECE4F0E202C040
:1001300005900D92A638B107D9F723E0A6E8B1E003
:1001400001C01D92A034B207E1F710E0CCE8D0E086
:1001500004C02197FE010E941E10CB38D107C9F7B9
:100160000E94520A0C9424100C94000096E0899F7F
:10017000D0011124AC53BD4F90967C936E935F9742
:1001800091E091969C939197E0913103F091320325
:1001900090913003992339F0309751F0811108C0C4
:1001A0008091E0020994309719F05C968C91FACF17
:1001B0000895CF92DF92EF92FF920F931F9396E0F4
:1001C000899FF0011124EC53FD4F11A2278D30A11E
:1001D0002130310551F178F02230310509F451C058
:1001E0002330310509F452C01F910F91FF90EF9019
:1001F000DF90CF9008956623B9F361E070E00E942C
:10020000B6002FB7F8948091B4029091B502A091F6
:10021000B602B091B7022FBF80931C0390931D03C9
:10022000A0931E03B0931F03DFCF9FB7F894C09035
:10023000B402D090B502E090B602F090B7029FBF32
:1002400000911C0310911D0320911E0330911F0388
:10025000C01AD10AE20AF30A00912E0310912F036B
:1002600030E020E00C151D052E053F0550F462E03E
:1002700070E01F910F91FF90EF90DF90CF900C9462
:10028000B6006111B1CF63E070E0F3CF70E060E0E1
:10029000F0CF08950895AF92BF92CF92DF92EF9280
:1002A000FF920F931F93CF93DF936C017B018B0120
:1002B000040F151FEB015E01AE18BF08C017D10770
:1002C00059F06991D601ED91FC910190F081E02DFA
:1002D000C6010995892B79F7C501DF91CF911F914F
:1002E0000F91FF90EF90DF90CF90BF90AF90089567
:1002F000833081F028F4813099F08230A9F008959C
:100300008730A9F08830C9F08430B1F48091800042
:100310008F7D03C0809180008F7780938000089547
:1003200084B58F7784BD089584B58F7DFBCF809190
:10033000B0008F778093B00008958091B0008F7DDA
:10034000F9CFCF93DF93282F30E0F901E450FF4F2E
:100350008491F901E851FF4FD491F901EC52FF4F1C
:10036000C491CC23A1F081110E947801EC2FF0E020
:10037000EE0FFF1FE653FF4FA591B491EC91ED23D3
:1003800081E090E009F480E0DF91CF91089580E072
:1003900090E0FACF862F0C94A1011F93CF93DF93A7
:1003A000282F30E0F901E450FF4F8491F901E85122
:1003B000FF4FD491F901EC52FF4FC491CC23A9F027
:1003C000162F81110E947801EC2FF0E0EE0FFF1F35
:1003D000E054FF4FA591B4918FB7F894EC911111AF
:1003E00008C0D095DE23DC938FBFDF91CF911F91A2
:1003F0000895DE2BF8CF862F642F0C94CD01CF9378
:10040000DF9390E0FC01E851FF4F24918C529F4F05
:10041000FC0184918823C9F090E0880F991FFC01AA
:10042000EA54FF4FA591B491FC01E054FF4FC591F0
:10043000D49161110DC09FB7F8948C9120958223BF
:100440008C938881282328839FBFDF91CF910895C3
:10045000623051F49FB7F8943C91822F80958323AA
:100460008C93E8812E2BEFCF8FB7F894EC912E2B45
:100470002C938FBFEACF862F642F0C94FF016F92CD
:100480007F928F929F92AF92BF92CF92DF92EF9224
:10049000FF920F931F93CF93DF9381E080933003FC
:1004A0008FB7F8944091B4025091B5026091B602B2
:1004B0007091B7028FBF8091200390912103A0918A
:1004C0002203B0912303481B590B6A0B7B0B8091CD
:1004D0002C0390912D03B0E0A0E084179507A607A8
:1004E000B70708F01DC1C0E080912A03C81760F467
:1004F000E0912603F0912703EC0FF11D62E080816B
:100500000E94FF01CF5FF0CF712C812C912C540100
:10051000839480912B03781608F05FC0072D10E0BC
:10052000E0912803F0912903E00FF11F61E0808141
:100530000E94FF01E0912803F0912903E00FF11FD1
:1005400060E080810E94CD01D501C401072C04C068
:10055000880F991FAA1FBB1F0A94D2F76C017C0158
:10056000E094F094612C80912A036816F8F4C62D6B
:10057000D0E0E0912603F0912703EC0FFD1F80816E
:100580000E94A1012496CC0FDD1FCC53DD4F892B97
:1005900041F4888199818C299D299983888363946A
:1005A000E2CF888199818E219F21F7CFE0912803A6
:1005B000F0912903E00FF11F61E080810E94CD01DD
:1005C0008091280390912903080F191F60E0F8011A
:1005D00080810E94FF0173949CCFC4ECD2E0FE01A5
:1005E0008FEF9FEF278D30A1232B21F4148E968F50
:1005F000858F11A2369623E0E030F20799F7F12CAF
:1006000096E0D92E80912A03F81608F050C0E12C0C
:100610000F2D10E0000F111F04531D4F20912B03CD
:10062000E21608F042C0F801608171810E2C02C010
:10063000769567950A94E2F7F29E900111242E0DAB
:10064000311DE4ECF2E080E0458D568D241735072E
:1006500009F46AC08F5F36968A30B1F760FF23C015
:10066000E4ECF2E090E080E0448D411117C0E091AD
:100670002403F0912503E20FF31F4081D89EF0017F
:10068000D99EF00D1124EC53FD4F448F368F258FEA
:1006900010A2178E61E00E94D90005C0019636961F
:1006A0008A30910509F7E394B9CFF394ABCF80E09A
:1006B00099A19111892F2696F3E0C030DF07C1F789
:1006C0009FB7F8944091B4025091B5026091B60280
:1006D0007091B7029FBF4093200350932103609312
:1006E0002203709323038823D9F08091E5028823A5
:1006F000B9F08091E3029091E402019789F480912E
:10070000E002DF91CF911F910F91FF90EF90DF906A
:10071000CF90BF90AF909F908F907F906F900895F3
:100720001092300380E0EDCF6170B5CF3FB7F89401
:100730008091360290913702A0913802B09139022F
:1007400026B5A89B05C02F3F19F00196A11DB11D2C
:100750003FBFBA2FA92F982F8827BC01CD01620F68
:10076000711D811D911D42E0660F771F881F991F23
:100770004A95D1F708958F929F92AF92BF92CF92F0
:10078000DF92EF92FF924B015C010E9496036B0196
:100790007C010E9496036C197D098E099F09683EB1
:1007A000734081059105A8F321E0821A9108A10800
:1007B000B10888EEC80E83E0D81EE11CF11C81143C
:1007C0009104A104B10429F7FF90EF90DF90CF903E
:1007D000BF90AF909F908F90089585ED8093BC005F
:1007E0008091BC0084FDFCCF1092400208952091BE
:1007F000EE01260F3327331F21323105ECF420910F
:100800004002FC0190E080E0243069F082E008952D
:10081000A091EE012191AC0142535E4FA40FB52F80
:10082000B11D2C930196861798F38091EE01680F05
:100830006093EE0180E0089581E008950895E091CD
:10084000440280914302E81730F4F0E0E255FE4F95
:10085000808190E008958FEF9FEF0895909144027A
:10086000809143022FEF3FEF981748F4E92FF0E013
:10087000E255FE4F208130E09F5F90934402C90112
:1008800008958091430290914402891B990B089529
:10089000CF92DF92EF92FF920F931F93CF93DF934C
:1008A0007C01CB018A012091AD01222389F0EB016B
:1008B0006B01C40ED51ECC15DD0569F06991D70119
:1008C000ED91FC910190F081E02DC7010995F3CFE6
:1008D000642F0E94F703C801DF91CF911F910F9100
:1008E000FF90EF90DF90CF900895CF93DF931F920A
:1008F000CDB7DEB769832091AD012223F9F02091B5
:100900004102203258F021E030E0FC0133832283A1
:1009100090E080E00F90DF91CF91089580914202A6
:10092000E82FF0E0E357FE4F998190838F5F80932B
:1009300042028093410281E090E0ECCF61E0CE0181
:1009400001960E94F703F7CFCF93FC01C48121E009
:100950002093AD01C0938C0110924202109241028B
:100960008485682B88EB92E00E9475049091410287
:10097000913208F03FC0809140028111FCCF82E0AB
:100980008093400281E080933F028FEF80931102B9
:100990001092330290933202ADE8B1E0E2E1F2E06E
:1009A00080E098132FC01092340280913402CC0F53
:1009B000C82BC093340280913E02813039F51092E9
:1009C0003E02809134028093BB008091BC0083FD85
:1009D000F8CF85EC8093BC00809140028230E1F337
:1009E000809111028F3F31F080911102803211F01D
:1009F0008091110210924202109241021092AD01B8
:100A0000CF9108952D9121938F5FCBCF85EEE2CFCB
:100A1000089590E080E0089510929C0210929B024D
:100A20001092900210929D0283E08093000181E079
:100A3000809302011092B20210924602809301014B
:100A400010929E0210928F0210928B0110928A01D6
:100A500010929A02109299021092920210929102B0
:100A600010928901109288011092B3020895109299
:100A7000980210929702109296021092950210928C
:100A800094021092930210928B0110928A0110929C
:100A90009A02109299021092920210929102089575
:100AA0008F929F92AF92BF920F931F93CF93DF933A
:100AB000CDB7DEB7A1970FB6F894DEBF0FBECDBF9E
:100AC00019A2423008F44AE08E010F5D1F4F842EB8
:100AD000912CB12CA12CA50194010E94FC0FE62FB2
:100AE000B901CA01EA3044F5E05DD801EE938D0109
:100AF000232B242B252B79F790E080E0109769F0C9
:100B0000FD0101900020E9F73197AF014A1B5B0B13
:100B1000BD0183E393E00E944B01A1960FB6F894C8
:100B2000DEBF0FBECDBFDF91CF911F910F91BF9060
:100B3000AF909F908F900895E95CD7CFFC01019012
:100B40000020E9F73197AF01481B590BBC0183E343
:100B500093E00C944B010F931F93CF938C01C62FFE
:100B60000E94A4046C2F6460C8010E94A4046C2F2E
:100B70006B7FC8010E94A40483EC90E00197F1F719
:100B8000CF911F910F9108950F931F93CF93DF93F0
:100B90008C01D62FC42F607F642B0E94AB0580E1AF
:100BA000D89FB00111246C2BC801DF91CF911F9108
:100BB0000F910C94AB05CF93DF93CDB7DEB7289799
:100BC0000FB6F894DEBF0FBECDBF98E0E7E1F1E0CD
:100BD000DE01119601900D929A95E1F790913B03F9
:100BE000961710F46FEF690F262F30E0220F331F96
:100BF00041E050E04C0F5D1F240F351FF90160816B
:100C0000680F606840E083E393E028960FB6F8949D
:100C1000DEBF0FBECDBFDF91CF910C94C40540E085
:100C200061E083E393E00E94C4058BE39FE10197B9
:100C3000F1F780913C03882321F060E080E00C9480
:100C4000DB05089541E00E94C40581E090E008952D
:100C50000F931F93CF93DF938C01D0E0C0E0F80196
:100C6000EC0FFD1F6491662339F041E083E393E0CC
:100C70000E94C4052196F3CFCE01DF91CF911F9141
:100C80000F91089580919D02843010F50E940F0607
:100C900060E080E00E94DB058EE990E00E9428067B
:100CA00061E080E00E94DB058EE890E00E9428066B
:100CB00062E080E00E94DB0586E890E00E94280662
:100CC00063E080E00E94DB0587E790E00C94280653
:100CD00008951F93CF93DF9380910201882319F029
:100CE00083E0809300011091B202112319F087E094
:100CF0008093000180919B02882359F0809190029B
:100D000090910001891728F48F5F809390021092D0
:100D10009B0280919C02882349F080919002882355
:100D200029F081508093900210929C02C091900211
:100D3000C43070F4D0E06D2F80E00E94DB0584E7C2
:100D400090E00E942806DF5FD430A9F71123D1F08C
:100D5000D0E06D2F80E00E94DB0581E790E00E94EB
:100D60002806DF5FD430A9F7D0E06D2F8AE00E941B
:100D7000DB058EE690E00E942806DF5FD430A9F7FD
:100D8000C43058F46C2F80E00E94DB058BE690E0C5
:100D9000DF91CF911F910C9428066CEF6C0F8AE0C5
:100DA0000E94DB0588E690E0F3CFCF92DF92EF92CE
:100DB000FF926C01990FEE08FF08F7FE16C041E0A4
:100DC0006DE283E393E00E94C40566277727CB0199
:100DD0006C197D098E099F094AE00E945005019611
:100DE000FF90EF90DF90CF9008954AE0C701B601E1
:100DF000FF90EF90DF90CF900C9450050F931F93CE
:100E0000CF93DF938091B302833009F059C0809172
:100E10004502811158C081E080938F02EDE7F2E036
:100E2000AFE9B2E0819191918D939D9382E0EF388B
:100E3000F807C1F71092900210929D020E940F06CF
:100E400001EA12E0D0E0C0E06C2F82E00E94DB05F6
:100E500080E591E00E949E052196CE010E94D50674
:100E600082E591E00E949E05F801819191918F01A8
:100E70000E94D506C430D10539F709EA12E0D0E066
:100E8000C0E06C2F8CE00E94DB0580E591E00E94C1
:100E90009E05CE0105960E94D50682E591E00E944E
:100EA0009E05F801819191918F010E94D5062196AE
:100EB000C430D10531F7DF91CF911F910F91089583
:100EC00080919D02A6CF813081F482E080938F02D1
:100ED000EBE6F2E0AFE9B2E0819191918D939D93C1
:100EE00082E0ED37F807C1F7A5CF823081F483E0C7
:100EF00080938F02E9E5F2E0AFE9B2E08191919150
:100F00008D939D9382E0EB36F807C1F793CF833042
:100F100009F090CF84E080938F02E7E4F2E0AFE93C
:100F2000B2E0819191918D939D9382E0E935F8072C
:100F3000C1F780CFCF93DF930E940F06D0E0C0E0CF
:100F40006C2F83E00E94DB058DEA90E00E9428066A
:100F50002196CE010E94D506C430D10589F7DF91D4
:100F6000CF91089580919D02811107C081E0809307
:100F700046020E949A070C9469068130D1F38230B0
:100F800059F40E940F0663E083E00E94DB0584E5CC
:100F900091E00E949E05F5CF0895CF93DF932091B5
:100FA0008A0130918B0123303105E4F540919002A4
:100FB000842F90E0443008F087C047E050E0509321
:100FC00087014093860190938901809388012115C0
:100FD000310559F58091990290919A029093980267
:100FE00080939702809186016091880182500E94CF
:100FF000DB0585E691E00E949E0560918801809165
:1010000086010E94DB0580919702909198020E94D0
:10101000D50680918A0190918B01019690938B0166
:1010200080938A01DF91CF91089521303105D9F461
:10103000C0919702D0919802D0939602C0939502E6
:101040008091990290919A029093980280939702CE
:10105000809186016091880181500E94DB05CE015C
:101060000E94D506CACF2230310599F6C09195026B
:10107000D0919602D0939402C093930280919702EC
:101080009091980290939602809395028091990294
:1010900090919A0290939802809397028091860192
:1010A0006091880182500E94DB05CE010E94D50626
:1010B000809186016091880181500E94DB058091BA
:1010C000950290919602CCCF41E150E05093870178
:1010D00040938601049777CF0C94EE0F0C94E60FA3
:1010E0001F920F920FB60F9211242F933F938F935D
:1010F0009F93AF93BF938091B4029091B502A0915A
:10110000B602B091B7023091350223E0230F2D379C
:1011100058F50196A11DB11D209335028093B402AC
:101120009093B502A093B602B093B70280913602B5
:1011300090913702A0913802B09139020196A11D19
:10114000B11D8093360290933702A0933802B0937A
:101150003902BF91AF919F918F913F912F910F9045
:101160000FBE0F901F90189526E8230F0296A11D21
:10117000B11DD2CF1F920F920FB60F9211242F9351
:101180003F934F935F936F937F938F939F93AF930F
:10119000BF93EF93FF938091B900887F803609F465
:1011A0004AC0F0F5883209F4A7C018F5803109F477
:1011B0009BC0B8F4882309F4F9C0883009F494C0BE
:1011C000FF91EF91BF91AF919F918F917F916F911F
:1011D0005F914F913F912F910F900FBE0F901F90F5
:1011E0001895883109F488C0803251F78093110234
:1011F00014C0803409F49DC040F48033B9F38833BF
:10120000F9F68093110285ECB0C0803509F485C0F1
:10121000883509F496C0883499F60E94ED03D0CF42
:10122000883909F48CC038F5883729F050F48836AD
:1012300011F0803729F683E080934002109210026B
:1012400057C0883809F47BC0803919F0803809F01C
:10125000B7CF80911002803208F071C0E091100287
:1012600081E08E0F809310028091BB00F0E0E0518E
:10127000FE4F80833DC0803B39F0E0F4803A09F4B2
:1012800079C0883A09F09CCF84E0809340021092A4
:10129000EF011092EE01E0913C02F0913D020995C0
:1012A0008091EE0181110FC081E08093EE011092D8
:1012B000CE0109C0803C09F4A6CF883C09F4A3CF35
:1012C000883B09F07DCFE091EF0181E08E0F8093A4
:1012D000EF01F0E0E253FE4F80818093BB009091DC
:1012E000EF018091EE0129C0809134028093BB0010
:1012F00085EC8093BC0064CF9091330280913202E0
:10130000981758F5E091330281E08E0F80933302F5
:10131000F0E0EE5EFD4F8081E9CFE091330281E0A5
:101320008E0F809333028091BB00F0E0EE5EFD4FA4
:10133000808390913302809132029817C8F285E839
:10134000D8CFE091330281E08E0F809333028091F9
:10135000BB00F0E0EE5EFD4F808380913F02811183
:101360005CCF81E080933E0284EA8093BC001092BF
:10137000400226CF85EC8093BC0010924002809101
:101380001002803230F4E0911002F0E0E051FE4FA4
:1013900010826091100270E0E0913A02F0913B02FD
:1013A00080EF91E00995109210020ACF109211027D
:1013B00034CF1092BB021092BA0288EE93E0A0E004
:1013C000B0E08093BC029093BD02A093BE02B093A4
:1013D000BF0283E291E09093B9028093B802109229
:1013E0003603109235038FE391E09093340380939A
:1013F000330310923C0387E28093370384E18093A8
:101400003D0384E080933E0310923F031092C60296
:101410001092CA021092C9021092CB0285E391E0A9
:101420009093C5028093C402E0EEF2E01082148231
:1014300013821582369683E0EC31F807B9F78BE416
:1014400091E0909327038093260387E491E09093A3
:1014500029038093280385E080932A0384E0809306
:101460002B0383E091E090932503809324038AE08B
:1014700090E090932D0380932C0384EF91E0909360
:101480002F0380932E031092320310923103109297
:101490002003109221031092220310922303109232
:1014A00030030895789484B5826084BD84B58160EA
:1014B00084BD85B5826085BD85B5816085BD80911F
:1014C0006E00816080936E00109281008091810097
:1014D000826080938100809181008160809381008F
:1014E000809180008160809380008091B100846051
:1014F0008093B1008091B00081608093B0008091B2
:101500007A00846080937A0080917A008260809370
:101510007A0080917A00816080937A0080917A00CD
:10152000806880937A001092C10010924402109259
:10153000430210924202109241021092400281E056
:1015400080933F0210923E0261E082E10E94CD0151
:1015500061E083E10E94CD018091B9008E7F80938C
:10156000B9008091B9008D7F8093B90088E48093A1
:10157000B80085E48093BC0089E491E090933D023B
:1015800080933C028AE491E090933B0280933A027C
:101590001092380380913E03823018F098E09093C7
:1015A000380380933B0362E370E080E090E00E94A8
:1015B000BB0360913F0383E393E00E94A40468EEC1
:1015C00073E080E090E00E94BB0360E383E393E07C
:1015D0000E94AB05CBE4D6E4CE010197F1F760E3BE
:1015E00083E393E00E94AB052197F1F760E383E387
:1015F00093E00E94AB0583E592E00197F1F760E28A
:1016000083E393E00E94AB0560913803606240E0A1
:1016100083E393E00E94C40584E08093390340E0B3
:101620006CE083E393E00E94C4050E940F0682E011
:1016300080933A0340E066E083E393E00E94C405B0
:1016400040E062E083E393E00E94C4058BE39FE106
:101650000197F1F70E940F0662E082E00E94DB052D
:101660008AE691E00E949E0588E080933F0360E057
:1016700083E393E00E94A40462E083E00E94FF0100
:1016800062E082E00E94FF0162E081E00E94FF01CF
:1016900062E080E00E94FF0162E08EE00E94FF01B4
:1016A00062E08FE00E94FF0162E080E10E94FF01A2
:1016B00062E081E10E94FF010E9437053FE7E32ECF
:1016C00032E0F32EC1E0D0E04AE0B42E54E6C52E5D
:1016D000CE010E946E08082F10E01093980200932C
:1016E0009702CE0101960E946E08D82E90E090934A
:1016F000960280939502CE0102960E946E08282FD2
:1017000030E03093940220939302DB9C000D111D76
:1017100011248C9D000D111D112410939202009331
:101720009102F701019311937F012396C931D105ED
:1017300079F60E9437058DE6E82E82E0F82E9AE0D1
:10174000B92E24E6C22ECE010E946E08082F10E0AA
:101750001093980200939702CE0101960E946E08A2
:10176000D82E90E09093960280939502CE01029637
:101770000E946E08282F30E0309394022093930249
:10178000DB9C000D111D11248C9D000D111D1124D9
:101790001093920200939102F701019311937F013C
:1017A0002396C133D10579F60E943705BBE5EB2EB0
:1017B000B2E0FB2E1AE0B12E04E6C02ECE010E944C
:1017C0006E08082F10E01093980200939702CE0144
:1017D00001960E946E08D82E90E090939602809316
:1017E0009502CE0102960E946E08282F30E03093B9
:1017F000940220939302DB9C000D111D11248C9DFB
:10180000000D111D11241093920200939102F70113
:10181000019311937F012396C934D10579F60E9473
:101820003705E9E4EE2EE2E0FE2EFAE0BF2EA4E654
:10183000CA2ECE010E946E08082F10E01093980265
:1018400000939702CE0101960E946E08D82E90E078
:101850009093960280939502CE0102960E946E08A4
:10186000282F30E03093940220939302DB9C000DEC
:10187000111D11248C9D000D111D11241093920235
:1018800000939102F701019311937F012396C136D2
:10189000D10579F682E690E00E946E0880934502B9
:1018A0000E9437050E940F061092900283E08093F9
:1018B000B3020E94FE0647E0242E312C56E0452E4E
:1018C000512C65E0662E712C74E0C72ED12C8091CE
:1018D000B302823008F0F7C080910201882309F436
:1018E000A1C00E943F028093B102882309F49AC0EC
:1018F000853519F580919D028823C9F19091B30235
:1019000091110EC091E090939C02815080939D02B2
:101910008091460281119FC10E9442060E94690681
:101920008091B302813049F480939C0280919D02A2
:10193000815080939D020E9469068091B10281349A
:10194000B1F480919D02833090F49091B302911193
:1019500088C191E090939B028F5F80939D0280915C
:10196000460281117BC10E9442060E946906809155
:10197000B102853409F04AC080919D02843008F09C
:1019800051C08091B302811106C08091460281113D
:1019900071C10E94B2078091B3028130E9F4C0E0C6
:1019A0006C2F8CE00E94DB0584E191E00E94280608
:1019B000CF5FC430A9F7C0919D026C2F8CE00E94CC
:1019C000DB0582E191E00E942806C09345026C2F5E
:1019D00082E690E00E946C08C0919D02C13009F03F
:1019E00053C18091B302813089F0109290020E941D
:1019F000B20710929D02C093B302609145028CE041
:101A00000E94DB0580E191E00E9428068091B102EE
:101A1000833541F40E940C050E9437050E9442065E
:101A20000E9469068091B202882309F44CC00E948A
:101A30003F028093B102882309F445C090910101CF
:101A4000992309F445C190919E02911141C18535B8
:101A500009F02DC180919D02882309F436C191E0DF
:101A600090939C02815080939D020E946906C091D0
:101A7000B102C33541F40E940C050E9437050E9453
:101A800042060E94690680919E028823E1F08091BF
:101A90000101811118C081E090E0C13309F480C2D6
:101AA000E2E0F0E0C23309F472C283E090E0C333B5
:101AB00009F476C2C43309F051C2D0929A02C0929E
:101AC00099020E94CD078091B302833009F0BBC018
:101AD0008EE00E94A101892BA1F183E00E94A10167
:101AE000892B41F060E089E00E94DB058EE791E000
:101AF0000E949E0582E00E94A101892B41F060E0D6
:101B000089E00E94DB0580E891E00E949E0581E06B
:101B10000E94A101892B41F060E089E00E94DB0571
:101B200082E891E00E949E0580E00E94A101892B3D
:101B300041F060E089E00E94DB0584E891E00E94CA
:101B40009E058FE00E94A101892BA1F183E00E94F4
:101B5000A101892B41F060E089E00E94DB058EE75E
:101B600091E00E949E0582E00E94A101892B41F034
:101B700060E089E00E94DB0580E891E00E949E051C
:101B800081E00E94A101892B41F060E089E00E9480
:101B9000DB0582E891E00E949E0580E00E94A101A1
:101BA000892B41F060E089E00E94DB0584E891E048
:101BB0000E949E0580E10E94A101892BA1F183E092
:101BC0000E94A101892B41F060E089E00E94DB05C1
:101BD0008EE791E00E949E0582E00E94A101892B80
:101BE00041F060E089E00E94DB0580E891E00E941E
:101BF0009E0581E00E94A101892B41F060E089E00F
:101C00000E94DB0582E891E00E949E0580E00E9430
:101C1000A101892B41F060E089E00E94DB0584E8A6
:101C200091E00E949E050E943F028093B10286349B
:101C300051F41092B3020E940C050E9437050E94D5
:101C400042060E94690680E090E0892B09F43FCEAD
:101C50000E9400003CCE0E949A0760CE0E949A0724
:101C600084CE913009F083CE90939B028F5F809356
:101C70009D027BCE1092020181E08093B2020E940D
:101C8000FE060E94690687CEC33009F0BFCE809160
:101C9000B302833009F4BACE10929002C093B3021B
:101CA0000E94B2070E94FE0610929D02AFCE8134C0
:101CB00079F480919D02883040F491E090939B02EA
:101CC0008F5F80939D020E946906C091B102DBCEB6
:101CD000853409F0CCCE80919D028830B0F72091F8
:101CE0009502309196024AE0429FC001439F900DB9
:101CF00011242091970230919802820F931F4091F6
:101D000093025091940264E6649F9001659F300DA8
:101D10001124820F931F9093920280939102C1E04D
:101D2000D0E0B12C00E015E0809190028B113FC013
:101D300080918F02813009F059C07E01EE0CFF1CAA
:101D4000C70183589D4F4C0180919102909192025E
:101D5000F40191838083602F812F0E94DB0586E64A
:101D600091E00E949E05602F812F0E94DB05F40107
:101D70006081718190E080E04AE00E9450058CE72C
:101D800091E00E949E0587010C0F1D1F6091970234
:101D9000C80102970E946C0860919502C8010197E2
:101DA0000E946C0860919302C8010E946C0881E057
:101DB0008B0D883089F40E94370580919E029091A6
:101DC0000101992309F4F9C0811151CE81E080937A
:101DD0009E02109201014BCE0DEF0B0D1FE08430DF
:101DE00010F4082F15E02196B82E9ECF8230D1F541
:101DF0007E01EE0CFF1CC70185599D4F4C0180915F
:101E0000910290919202F40191838083602F812F3F
:101E10000E94DB0586E691E00E949E05602F812FDF
:101E20000E94DB05F4016081718190E080E04AE06E
:101E30000E9450058CE791E00E949E0587010C0FDF
:101E40001D1F60919702C80146960E946C08609120
:101E50009502C80147960E946C0860919302C801E0
:101E60004896A3CF8330D1F57E01EE0CFF1CC7014D
:101E7000875A9D4F4C018091910290919202F401FA
:101E800091838083602F812F0E94DB0586E691E09D
:101E90000E949E05602F812F0E94DB05F401608166
:101EA000718190E080E04AE00E9450058CE791E06B
:101EB0000E949E0587010C0F1D1F60919702C801AB
:101EC0008E960E946C0860919502C8018F960E94C0
:101ED0006C0860919302C801C09667CF843009F006
:101EE00066CF7E01EE0CFF1CC701895B9D4F4C0144
:101EF0008091910290919202F40191838083602FEE
:101F0000812F0E94DB0586E691E00E949E05602FEE
:101F1000812F0E94DB05F4016081718190E080E0F7
:101F20004AE00E9450058CE791E00E949E058701DF
:101F30000C0F1D1F60919702C8018A5B9F4F0E9482
:101F40006C0860919502C801895B9F4F0E946C08E4
:101F500060919302C801885B9F4F27CFC53329F456
:101F600070929A0260929902ACCDC63329F45092D5
:101F70009A0240929902A5CDC73329F430929A0271
:101F8000209299029ECDC83339F4E8E0F0E0F09356
:101F90009A02E093990295CDC93339F489E090E033
:101FA00090939A02809399028CCDC03309F08BCD27
:101FB00010929A021092990284CD882309F457CD89
:101FC00081E08093010110929E0251CDF999FECFDC
:101FD00092BD81BDF89A992780B50895262FF99969
:101FE000FECF1FBA92BD81BD20BD0FB6F894FA9AFC
:101FF000F99A0FBE01960895A1E21A2EAA1BBB1BE7
:10200000FD010DC0AA1FBB1FEE1FFF1FA217B307C4
:10201000E407F50720F0A21BB30BE40BF50B661FDA
:10202000771F881F991F1A9469F76095709580959E
:1020300090959B01AC01BD01CF010895EE0FFF1FEC
:0C2040000590F491E02D0994F894FFCF76
:10204C000301014647232A313233553435364137A3
:10205C003839534430494500004000140054000006
:10206C000000007504480409051E0441042E041FD9
:10207C0004000000003B02FB01CA0100000000222A
:10208C00064B0109050805070605040C0B0A09088F
:10209C0023003A0053656E736F722074656D702067
:1020AC004C4D333500202020200043617267616E57
:1020BC00646F2050726F6772616D6100580041004F
:0620CC0042004300440045
:00000001FF
